:100000000C9434000C9451000C9451000C94510049
:100010000C9451000C9451000C9451000C9451001C
:100020000C9451000C9451000C9451000C9451000C
:100030000C9451000C9451000C9451000C945100FC
:100040000C9451000C9451000C9499000C945100A4
:100050000C9451000C9451000C9451000C945100DC
:100060000C9451000C94510011241FBECFEFD8E026
:10007000DEBFCDBF11E0A0E0B1E0E4EDF2E002C0F0
:1000800005900D92A833B107D9F711E0A8E3B1E0CC
:1000900001C01D92AB37B107E1F70E9453000C94E9
:1000A00068010C9400000F931F93DF93CF93CDB79B
:1000B000DEB7C654D0400FB6F894DEBF0FBECDBF3A
:1000C000DE015F96E0E1F1E08EE101900D9281505A
:1000D000E1F7FE01FD968AE0DF011D928A95E9F7BE
:1000E00060E875E280E090E00E94C500CE014F9686
:1000F0000E94F0000E94E5008823E1F388EE93E07F
:1001000020E931E0F9013197F1F70197D9F78E0134
:100110000F5F1F4FC8010E94280180E091E00E94FC
:10012000F000C8010E94F00089E091E00E94F00018
:10013000FFCF1F920F920FB60F9211248F939F93B0
:10014000EF93FF9380913A019091C600E82FF0E081
:10015000E55CFE4F90838F5F80933A0180913A0176
:100160008F7380933A0180913801803428F4809114
:1001700038018F5F80933801FF91EF919F918F91AC
:100180000F900FBE0F901F9018959B01AC0180E25D
:100190008093C00088E98093C10086E08093C2000C
:1001A00084E0220F331F441F551F8A95D1F760E06A
:1001B00074E284EF90E00E94460121503040309379
:1001C000C5002093C4007894089580913801089563
:1001D000982F8091C00085FFFCCF9093C6000895B2
:1001E000FC0107C08091C00085FFFCCF9093C60042
:1001F000319690819923B1F708959C01F9012F5F01
:100200003F4F9491992339F08091C00085FFFCCF36
:100210009093C600F3CF089580913801882311F49C
:10022000EFEF14C080913901E82FF0E0E55CFE4F5C
:10023000E0818F5F80933901809139018F738093C2
:100240003901809138018150809338018E2F0895B3
:10025000EF92FF921F93CF93DF937C0110E006C0D3
:100260000E940C01CE0DDF1D88831F5F8091380135
:10027000C12FD0E08823A1F7CE0DDF1D1882812F7A
:10028000DF91CF911F91FF90EF900895A1E21A2E78
:10029000AA1BBB1BFD010DC0AA1FBB1FEE1FFF1F2A
:1002A000A217B307E407F50720F0A21BB30BE40B7A
:1002B000F50B661F771F881F991F1A9469F76095C1
:1002C0007095809590959B01AC01BD01CF0108957B
:0402D000F894FFCFD0
:1002D4005A647261766F2C20002E203A290D0A0090
:1002E400556E65736974652073766F6A6520696DF0
:1002F400652069207072657A696D650D0A000000D9
:080304000000000000000000F1
:00000001FF
