:100000000C9434000C943E000C943E000C943E0082
:100010000C943E000C943E000C943E000C943E0068
:100020000C943E000C943E000C943E000C943E0058
:100030000C943E000C943E000C943E000C943E0048
:100040000C943E000C943E000C943E000C943E0038
:100050000C943E000C943E000C943E000C943E0028
:100060000C943E000C943E0011241FBECFEFD8E04C
:10007000DEBFCDBF0E9440000C94E9000C9400004C
:1000800080E090E008958130F9F0813020F08230F6
:1000900009F04BC032C0413059F425B181E090E005
:1000A00002C0880F991F6A95E2F7282B25B9089599
:1000B00025B181E090E002C0880F991F6A95E2F7B0
:1000C0008095822385B90895413059F428B181E0A3
:1000D00090E002C0880F991F6A95E2F7282B28B993
:1000E000089528B181E090E002C0880F991F6A95B9
:1000F000E2F78095822388B90895413059F42BB1F5
:1001000081E090E002C0880F991F6A95E2F7282BE2
:100110002BB908952BB181E090E002C0880F991FA0
:100120006A95E2F7809582238BB908958130F9F0C2
:10013000813020F0823009F04BC032C0413059F498
:1001400024B181E090E002C0880F991F6A95E2F720
:10015000282B24B9089524B181E090E002C0880FD3
:10016000991F6A95E2F78095822384B908954130FA
:1001700059F427B181E090E002C0880F991F6A9579
:10018000E2F7282B27B9089527B181E090E002C05B
:10019000880F991F6A95E2F78095822387B90895A1
:1001A000413059F42AB181E090E002C0880F991FD4
:1001B0006A95E2F7282B2AB908952AB181E090E0E8
:1001C00002C0880F991F6A95E2F7809582238AB949
:0601D0000895F894FFCF32
:00000001FF
